S012000066697273745F636F64652E73726563F0
S11300000C942A000C943F000C943F000C943F0085
S11300100C943F000C943F000C943F000C943F0060
S11300200C943F000C943F000C943F000C943F0050
S11300300C943F000C943F000C943F000C943F0040
S11300400C943F000C943F000C943F000C943F0030
S11300500C943F0011241FBECFE5D8E0DEBFCDBF16
S113006010E0A0E6B0E0E4ECF0E002C005900D92F0
S1130070A436B107D9F70E9441000C9460000C9497
S11300800000CF93DF93CDB7DEB7809162009091EB
S113009063002091620030916300F901208120689F
S11300A0FC012083809160009091610020916000A8
S11300B030916100F90120812068FC012083E5CFA3
S10700C0F894FFCFDE
S10700C435003400CB
S9030000FC
