S01700004763634170706C69636174696F6E322E737265635A
S11300000C942A000C9434000C9434000C943400A6
S11300100C9434000C9434000C9434000C9434008C
S11300200C9434000C9434000C9434000C9434007C
S11300300C9434000C9434000C9434000C9434006C
S11300400C9434000C9434000C9434000C9434005C
S11300500C94340011241FBECFE5D8E0DEBFCDBF21
S11300600E9436000C944C050C940000CF93DF934F
S1130070CDB7DEB78AE10E949202882319F082E3A9
S11300800E94EE0288E00E949202882399F38CE396
S11300900E949403EFCFCF93DF93CDB7DEB76D9774
S11300A00FB6F894DEBF0FBECDBF8D8F87E390E00F
S11300B026E0FC01208388E390E028E330E0F901A6
S11300C020812460FC0120838BE390E03D8D2DECA6
S11300D0329F212D11242695269526952295207F41
S11300E0FC01208361E087E00E94A10161E086E0D9
S11300F00E94A10161E084E00E94A10161E085E029
S11301000E94A10180E090E0A0E2B1E489839A8397
S1130110AB83BC8320E030E04AE753E469817A8111
S11301208B819C810E94B704DC01CB018B8B9C8B5F
S1130130AD8BBE8B20E030E040E85FE36B897C89C7
S11301408D899E890E94310488232CF481E090E0FB
S1130150988F8F8B3FC020E03FEF4FE757E46B89C8
S11301607C898D899E890E94B20418164CF520E082
S113017030E040E251E469817A818B819C810E9464
S1130180B704DC01CB01BC01CD010E943604DC01C3
S1130190CB01988F8F8B0FC089E190E09A8F898F64
S11301A0898D9A8D0197F1F79A8F898F8F89988D10
S11301B00197988F8F8B8F89988D892B69F714C03D
S11301C06B897C898D899E890E943604DC01CB0170
S11301D0988F8F8B8F89988D9C8F8B8F8B8D9C8D17
S11301E00197F1F79C8F8B8F88E390E028E330E050
S11301F0F90120812B7FFC01208388E390E028E330
S113020030E0F90120812260FC0120832BE330E0FF
S11302109D8D8DEC989F812D1124869586958695CC
S1130220880F482F440F440F840FF92FF81B8F2F8A
S11302308295807FF901808380E090E0A0E2B1E4C0
S11302408D839E83AF83B88720E030E04AE753E490
S11302506D817E818F8198850E94B704DC01CB017A
S113026089879A87AB87BC8720E030E040E85FE36A
S113027069857A858B859C850E94310488232CF4BA
S113028081E090E09E878D873FC020E03FEF4FE7FD
S113029057E469857A858B859C850E94B20418167B
S11302A04CF520E030E040E251E46D817E818F81A5
S11302B098850E94B704DC01CB01BC01CD010E94EA
S11302C03604DC01CB019E878D870FC089E190E065
S11302D0988B8F878F8598890197F1F7988B8F87F3
S11302E08D859E8501979E878D878D859E85892B1B
S11302F069F714C069857A858B859C850E943604CC
S1130300DC01CB019E878D878D859E859A8B898B99
S113031089899A890197F1F79A8B898B88E390E010
S113032028E330E0F90120812D7FFC0120830000C7
S11303306D960FB6F894DEBF0FBECDBFDF91CF919F
S11303400895CF93DF9300D0CDB7DEB789836A8356
S11303508981883090F58A818823B1F48AE390E01A
S11303602AE330E0F9012081622F2981422F50E0F5
S113037021E030E002C0220F331F4A95E2F72095B6
S11303802623FC012083C8C08A81813009F0C4C0BF
S11303908AE390E02AE330E0F9012081622F298189
S11303A0422F50E021E030E002C0220F331F4A9573
S11303B0E2F7262BFC012083AFC089818031C0F590
S11303C08A818823C9F487E390E027E330E0F901C8
S11303D02081622F2981222F30E0A9014850510940
S11303E021E030E002C0220F331F4A95E2F7209546
S11303F02623FC01208390C08A81813009F08CC0BF
S113040087E390E027E330E0F9012081622F29811E
S1130410222F30E0A9014850510921E030E002C008
S1130420220F331F4A95E2F7262BFC01208374C068
S113043089818831C0F58A818823C9F484E390E0F6
S113044024E330E0F9012081622F2981222F30E05A
S1130450A9014051510921E030E002C0220F331FAD
S11304604A95E2F720952623FC01208355C08A8112
S1130470813009F051C084E390E024E330E0F901D5
S11304802081622F2981222F30E0A9014051510996
S113049021E030E002C0220F331F4A95E2F7262BF9
S11304A0FC01208339C089818032B0F58A81882398
S11304B0C9F481E390E021E330E0F9012081622F67
S11304C02981222F30E0A9014851510921E030E06F
S11304D002C0220F331F4A95E2F720952623FC0120
S11304E020831AC08A818130B9F481E390E021E34A
S11304F030E0F9012081622F2981222F30E0A90107
S11305004851510921E030E002C0220F331F4A95BF
S1130510E2F7262BFC01208300000F900F90DF915F
S1130520CF910895CF93DF931F92CDB7DEB7898320
S11305308981883080F489E390E0FC018081882FF0
S113054090E02981222F30E002C0959587952A9565
S1130550E2F781703FC08981803190F486E390E0B6
S1130560FC018081882F90E02981222F30E02850DF
S1130570310902C0959587952A95E2F781702AC0C2
S11305808981883190F483E390E0FC018081882F95
S113059090E02981222F30E02051310902C0959545
S11305A087952A95E2F7817015C08981803290F48D
S11305B080E390E0FC018081882F90E02981222F44
S11305C030E02851310902C0959587952A95E2F7C4
S11305D0817000C00F90DF91CF910895CF93DF9386
S11305E0CDB7DEB761970FB6F894DEBF0FBECDBFAF
S11305F0898B19828AC01A8278C089810E944B0033
S113060080E090E0A0EAB1E48B839C83AD83BE8359
S113061020E030E04AE755E46B817C818D819E8146
S11306200E94B704DC01CB018F839887A987BA871E
S113063020E030E040E85FE36F81788589859A8522
S11306400E94310488232CF481E090E09C878B87FE
S11306503FC020E03FEF4FE757E46F8178858985FD
S11306609A850E94B20418164CF520E030E040E26E
S113067051E46B817C818D819E810E94B704DC01F1
S1130680CB01BC01CD010E943604DC01CB019C8767
S11306908B870FC080E991E09E878D878D859E852D
S11306A00197F1F79E878D878B859C8501979C87A1
S11306B08B878B859C85892B69F714C06F8178851E
S11306C089859A850E943604DC01CB019C878B873F
S11306D08B859C85988B8F878F8598890197F1F7F7
S11306E0988B8F878A818F5F8A838A81833308F40A
S11306F084CF88E00E949202882321F089810E949D
S11307004B00FCCF89818F5F8983998189899817F0
S113071008F471CF000061960FB6F894DEBF0FBEE7
S1130720CDBFDF91CF910895CF93DF93CDB7DEB7DF
S113073061970FB6F894DEBF0FBECDBF898B898950
S1130740898381C01A8278C089810E944B0080E02D
S113075090E0A0EAB1E48B839C83AD83BE8320E068
S113076030E04AE755E46B817C818D819E810E9453
S1130770B704DC01CB018F839887A987BA8720E06F
S113078030E040E85FE36F81788589859A850E942F
S1130790310488232CF481E090E09C878B873FC050
S11307A020E03FEF4FE757E46F81788589859A858C
S11307B00E94B20418164CF520E030E040E251E407
S11307C06B817C818D819E810E94B704DC01CB0109
S11307D0BC01CD010E943604DC01CB019C878B87D0
S11307E00FC080E991E09E878D878D859E85019756
S11307F0F1F79E878D878B859C8501979C878B87D6
S11308008B859C85892B69F714C06F8178858985D0
S11308109A850E943604DC01CB019C878B878B85EB
S11308209C85988B8F878F8598890197F1F7988B92
S11308308F878A818F5F8A838A81823308F484CF89
S11308408981815089838981882309F07BCF0000C5
S113085061960FB6F894DEBF0FBECDBFDF91CF9186
S113086008950E94650408F481E008950E949104AB
S113087088F09F5798F0B92F9927B751B0F0E1F05D
S1130880660F771F881F991F1AF0BA95C9F714C00D
S1130890B13091F00E94AB04B1E008950C94AB0424
S11308A0672F782F8827B85F39F0B93FCCF3869546
S11308B077956795B395D9F73EF4909580957095A3
S11308C061957F4F8F4F9F4F0895990F0008550FE3
S11308D0AA0BE0E8FEEF16161706E807F907C0F0C2
S11308E012161306E407F50798F0621B730B840BCA
S11308F0950B39F40A2661F0232B242B252B21F4A4
S113090008950A2609F4A140A6958FEF811D811D43
S1130910089557FD9058440F551F59F05F3F71F0EB
S11309204795880F97FB991F61F09F3F79F0879552
S11309300895121613061406551FF2CF4695F1DFDB
S113094008C0161617061806991FF1CF869571056B
S1130950610508940895E894BB2766277727CB019F
S113096097F908950E94650408F48FEF08950E9492
S1130970CA040C943B050E942D0538F00E943405EE
S113098020F0952311F00C9424050C942A051124CD
S11309900C94AC040E94890470F3959FC1F3950FE5
S11309A050E0551F629FF001729FBB27F00DB11DEF
S11309B0639FAA27F00DB11DAA1F649F6627B00D7F
S11309C0A11D661F829F2227B00DA11D621F739F68
S11309D0B00DA11D621F839FA00D611D221F749F76
S11309E03327A00D611D231F849F600D211D822FBD
S11309F0762F6A2F11249F5750409AF0F1F08823E4
S1130A004AF0EE0FFF1FBB1F661F771F881F915010
S1130A105040A9F79E3F510580F00C9424050C9496
S1130A20AC045F3FE4F3983ED4F3869577956795DD
S1130A30B795F795E7959F5FC1F7FE2B880F911D3A
S1130A409695879597F9089597F99F6780E870E0E0
S1130A5060E008959FEF80EC089500240A94161630
S1130A60170618060906089500240A941216130698
S1130A70140605060895092E0394000C11F4882326
S1130A8052F0BB0F40F4BF2B11F460FF04C06F5F42
S10F0A907F4F8F4F9F4F0895F894FFCFC5
S9030000FC
