S01700004763634170706C69636174696F6E312E737265635B
S11300000C942A000C9434000C9434000C943400A6
S11300100C9434000C9434000C9434000C9434008C
S11300200C9434000C9434000C9434000C9434007C
S11300300C9434000C9434000C9434000C9434006C
S11300400C9434000C9434000C9434000C9434005C
S11300500C94340011241FBECFE5D8E0DEBFCDBF21
S11300600E9436000C945C000C94000061E081E076
S11300700E943D0080E090E00895613069F44BB344
S113008021E030E0B90102C0660F771F8A95E2F7DC
S1130090CB01842B8BBB089561110DC04BB321E0C0
S11300A030E0B90102C0660F771F8A95E2F7CB01F1
S10F00B0809584238BBB0895F894FFCF47
S9030000FC
